{
  "_format": "hh-sol-artifact-1",
  "contractName": "SafeClub",
  "sourceName": "contracts/SafeClub.sol",
  "abi": [
    {
      "inputs": [
        {
          "internalType": "uint256",
          "name": "_quorum",
          "type": "uint256"
        }
      ],
      "stateMutability": "nonpayable",
      "type": "constructor"
    },
    {
      "inputs": [
        {
          "internalType": "address",
          "name": "owner",
          "type": "address"
        }
      ],
      "name": "OwnableInvalidOwner",
      "type": "error"
    },
    {
      "inputs": [
        {
          "internalType": "address",
          "name": "account",
          "type": "address"
        }
      ],
      "name": "OwnableUnauthorizedAccount",
      "type": "error"
    },
    {
      "inputs": [],
      "name": "ReentrancyGuardReentrantCall",
      "type": "error"
    },
    {
      "anonymous": false,
      "inputs": [
        {
          "indexed": false,
          "internalType": "address",
          "name": "member",
          "type": "address"
        }
      ],
      "name": "MemberAdded",
      "type": "event"
    },
    {
      "anonymous": false,
      "inputs": [
        {
          "indexed": false,
          "internalType": "address",
          "name": "member",
          "type": "address"
        }
      ],
      "name": "MemberRemoved",
      "type": "event"
    },
    {
      "anonymous": false,
      "inputs": [
        {
          "indexed": true,
          "internalType": "address",
          "name": "previousOwner",
          "type": "address"
        },
        {
          "indexed": true,
          "internalType": "address",
          "name": "newOwner",
          "type": "address"
        }
      ],
      "name": "OwnershipTransferred",
      "type": "event"
    },
    {
      "anonymous": false,
      "inputs": [
        {
          "indexed": false,
          "internalType": "uint256",
          "name": "proposalId",
          "type": "uint256"
        },
        {
          "indexed": false,
          "internalType": "address",
          "name": "recipient",
          "type": "address"
        },
        {
          "indexed": false,
          "internalType": "uint256",
          "name": "amount",
          "type": "uint256"
        },
        {
          "indexed": false,
          "internalType": "uint256",
          "name": "deadline",
          "type": "uint256"
        }
      ],
      "name": "ProposalCreated",
      "type": "event"
    },
    {
      "anonymous": false,
      "inputs": [
        {
          "indexed": false,
          "internalType": "uint256",
          "name": "proposalId",
          "type": "uint256"
        },
        {
          "indexed": false,
          "internalType": "address",
          "name": "recipient",
          "type": "address"
        },
        {
          "indexed": false,
          "internalType": "uint256",
          "name": "amount",
          "type": "uint256"
        }
      ],
      "name": "ProposalExecuted",
      "type": "event"
    },
    {
      "anonymous": false,
      "inputs": [
        {
          "indexed": false,
          "internalType": "uint256",
          "name": "proposalId",
          "type": "uint256"
        },
        {
          "indexed": false,
          "internalType": "address",
          "name": "voter",
          "type": "address"
        },
        {
          "indexed": false,
          "internalType": "bool",
          "name": "support",
          "type": "bool"
        }
      ],
      "name": "Voted",
      "type": "event"
    },
    {
      "inputs": [
        {
          "internalType": "address",
          "name": "_member",
          "type": "address"
        }
      ],
      "name": "addMember",
      "outputs": [],
      "stateMutability": "nonpayable",
      "type": "function"
    },
    {
      "inputs": [
        {
          "internalType": "address",
          "name": "_recipient",
          "type": "address"
        },
        {
          "internalType": "uint256",
          "name": "_amount",
          "type": "uint256"
        },
        {
          "internalType": "string",
          "name": "_description",
          "type": "string"
        },
        {
          "internalType": "uint256",
          "name": "_durationSeconds",
          "type": "uint256"
        }
      ],
      "name": "createProposal",
      "outputs": [],
      "stateMutability": "nonpayable",
      "type": "function"
    },
    {
      "inputs": [
        {
          "internalType": "uint256",
          "name": "_proposalId",
          "type": "uint256"
        }
      ],
      "name": "executeProposal",
      "outputs": [],
      "stateMutability": "nonpayable",
      "type": "function"
    },
    {
      "inputs": [],
      "name": "getBalance",
      "outputs": [
        {
          "internalType": "uint256",
          "name": "",
          "type": "uint256"
        }
      ],
      "stateMutability": "view",
      "type": "function"
    },
    {
      "inputs": [
        {
          "internalType": "address",
          "name": "",
          "type": "address"
        }
      ],
      "name": "isMember",
      "outputs": [
        {
          "internalType": "bool",
          "name": "",
          "type": "bool"
        }
      ],
      "stateMutability": "view",
      "type": "function"
    },
    {
      "inputs": [
        {
          "internalType": "uint256",
          "name": "",
          "type": "uint256"
        }
      ],
      "name": "members",
      "outputs": [
        {
          "internalType": "address",
          "name": "",
          "type": "address"
        }
      ],
      "stateMutability": "view",
      "type": "function"
    },
    {
      "inputs": [],
      "name": "nextProposalId",
      "outputs": [
        {
          "internalType": "uint256",
          "name": "",
          "type": "uint256"
        }
      ],
      "stateMutability": "view",
      "type": "function"
    },
    {
      "inputs": [],
      "name": "owner",
      "outputs": [
        {
          "internalType": "address",
          "name": "",
          "type": "address"
        }
      ],
      "stateMutability": "view",
      "type": "function"
    },
    {
      "inputs": [
        {
          "internalType": "uint256",
          "name": "",
          "type": "uint256"
        }
      ],
      "name": "propositions",
      "outputs": [
        {
          "internalType": "address",
          "name": "recipient",
          "type": "address"
        },
        {
          "internalType": "uint256",
          "name": "amount",
          "type": "uint256"
        },
        {
          "internalType": "string",
          "name": "description",
          "type": "string"
        },
        {
          "internalType": "uint256",
          "name": "deadline",
          "type": "uint256"
        },
        {
          "internalType": "uint256",
          "name": "yesVotes",
          "type": "uint256"
        },
        {
          "internalType": "uint256",
          "name": "noVotes",
          "type": "uint256"
        },
        {
          "internalType": "bool",
          "name": "executed",
          "type": "bool"
        }
      ],
      "stateMutability": "view",
      "type": "function"
    },
    {
      "inputs": [],
      "name": "quorum",
      "outputs": [
        {
          "internalType": "uint256",
          "name": "",
          "type": "uint256"
        }
      ],
      "stateMutability": "view",
      "type": "function"
    },
    {
      "inputs": [
        {
          "internalType": "address",
          "name": "_member",
          "type": "address"
        }
      ],
      "name": "removeMember",
      "outputs": [],
      "stateMutability": "nonpayable",
      "type": "function"
    },
    {
      "inputs": [],
      "name": "renounceOwnership",
      "outputs": [],
      "stateMutability": "nonpayable",
      "type": "function"
    },
    {
      "inputs": [
        {
          "internalType": "address",
          "name": "newOwner",
          "type": "address"
        }
      ],
      "name": "transferOwnership",
      "outputs": [],
      "stateMutability": "nonpayable",
      "type": "function"
    },
    {
      "inputs": [
        {
          "internalType": "uint256",
          "name": "_proposalId",
          "type": "uint256"
        },
        {
          "internalType": "bool",
          "name": "_support",
          "type": "bool"
        }
      ],
      "name": "vote",
      "outputs": [],
      "stateMutability": "nonpayable",
      "type": "function"
    },
    {
      "stateMutability": "payable",
      "type": "receive"
    }
  ],
  "bytecode": "0x608060405234801561001057600080fd5b506040516123ef3803806123ef833981810160405281019061003291906102ba565b33600073ffffffffffffffffffffffffffffffffffffffff168173ffffffffffffffffffffffffffffffffffffffff16036100a55760006040517f1e4fbdf700000000000000000000000000000000000000000000000000000000815260040161009c9190610328565b60405180910390fd5b6100b4816101bb60201b60201c565b5060018081905550806002819055506001600660003373ffffffffffffffffffffffffffffffffffffffff1673ffffffffffffffffffffffffffffffffffffffff16815260200190815260200160002060006101000a81548160ff0219169083151502179055506005339080600181540180825580915050600190039060005260206000200160009091909190916101000a81548173ffffffffffffffffffffffffffffffffffffffff021916908373ffffffffffffffffffffffffffffffffffffffff1602179055507fb251eb052afc73ffd02ffe85ad79990a8b3fed60d76dbc2fa2fdd7123dffd914336040516101ad9190610328565b60405180910390a150610343565b60008060009054906101000a900473ffffffffffffffffffffffffffffffffffffffff169050816000806101000a81548173ffffffffffffffffffffffffffffffffffffffff021916908373ffffffffffffffffffffffffffffffffffffffff1602179055508173ffffffffffffffffffffffffffffffffffffffff168173ffffffffffffffffffffffffffffffffffffffff167f8be0079c531659141344cd1fd0a4f28419497f9722a3daafe3b4186f6b6457e060405160405180910390a35050565b600080fd5b6000819050919050565b61029781610284565b81146102a257600080fd5b50565b6000815190506102b48161028e565b92915050565b6000602082840312156102d0576102cf61027f565b5b60006102de848285016102a5565b91505092915050565b600073ffffffffffffffffffffffffffffffffffffffff82169050919050565b6000610312826102e7565b9050919050565b61032281610307565b82525050565b600060208201905061033d6000830184610319565b92915050565b61209d806103526000396000f3fe6080604052600436106100e15760003560e01c80637d10707b1161007f578063b27183d211610059578063b27183d2146102a5578063c9d27afe146102e8578063ca6d56dc14610311578063f2fde38b1461033a576100e8565b80637d10707b146102145780638da5cb5b1461023d578063a230c52414610268576100e8565b80631703a018116100bb5780631703a0181461016a5780632ab09d14146101955780635daf08ca146101c0578063715018a6146101fd576100e8565b80630b1ca49a146100ed5780630d61b5191461011657806312065fe01461013f576100e8565b366100e857005b600080fd5b3480156100f957600080fd5b50610114600480360381019061010f9190611292565b610363565b005b34801561012257600080fd5b5061013d600480360381019061013891906112f5565b610610565b005b34801561014b57600080fd5b506101546108bb565b6040516101619190611331565b60405180910390f35b34801561017657600080fd5b5061017f6108c3565b60405161018c9190611331565b60405180910390f35b3480156101a157600080fd5b506101aa6108c9565b6040516101b79190611331565b60405180910390f35b3480156101cc57600080fd5b506101e760048036038101906101e291906112f5565b6108cf565b6040516101f4919061135b565b60405180910390f35b34801561020957600080fd5b5061021261090e565b005b34801561022057600080fd5b5061023b600480360381019061023691906113db565b610922565b005b34801561024957600080fd5b50610252610ae1565b60405161025f919061135b565b60405180910390f35b34801561027457600080fd5b5061028f600480360381019061028a9190611292565b610b0a565b60405161029c919061147e565b60405180910390f35b3480156102b157600080fd5b506102cc60048036038101906102c791906112f5565b610b2a565b6040516102df9796959493929190611529565b60405180910390f35b3480156102f457600080fd5b5061030f600480360381019061030a91906115cb565b610c21565b005b34801561031d57600080fd5b5061033860048036038101906103339190611292565b610e78565b005b34801561034657600080fd5b50610361600480360381019061035c9190611292565b611002565b005b61036b611088565b600660008273ffffffffffffffffffffffffffffffffffffffff1673ffffffffffffffffffffffffffffffffffffffff16815260200190815260200160002060009054906101000a900460ff166103f7576040517f08c379a00000000000000000000000000000000000000000000000000000000081526004016103ee90611657565b60405180910390fd5b6000600660008373ffffffffffffffffffffffffffffffffffffffff1673ffffffffffffffffffffffffffffffffffffffff16815260200190815260200160002060006101000a81548160ff02191690831515021790555060005b6005805490508110156105d5578173ffffffffffffffffffffffffffffffffffffffff166005828154811061048a57610489611677565b5b9060005260206000200160009054906101000a900473ffffffffffffffffffffffffffffffffffffffff1673ffffffffffffffffffffffffffffffffffffffff16036105c857600560016005805490506104e491906116d5565b815481106104f5576104f4611677565b5b9060005260206000200160009054906101000a900473ffffffffffffffffffffffffffffffffffffffff166005828154811061053457610533611677565b5b9060005260206000200160006101000a81548173ffffffffffffffffffffffffffffffffffffffff021916908373ffffffffffffffffffffffffffffffffffffffff160217905550600580548061058e5761058d611709565b5b6001900381819060005260206000200160006101000a81549073ffffffffffffffffffffffffffffffffffffffff021916905590556105d5565b8080600101915050610452565b507f6e76fb4c77256006d9c38ec7d82b45a8c8f3c27b1d6766fffc42dfb8de68449281604051610605919061135b565b60405180910390a150565b61061861110f565b600060036000838152602001908152602001600020905080600301544211610675576040517f08c379a000000000000000000000000000000000000000000000000000000000815260040161066c90611784565b60405180910390fd5b8060060160009054906101000a900460ff16156106c7576040517f08c379a00000000000000000000000000000000000000000000000000000000081526004016106be906117f0565b60405180910390fd5b60025481600401541015610710576040517f08c379a00000000000000000000000000000000000000000000000000000000081526004016107079061185c565b60405180910390fd5b806005015481600401541161075a576040517f08c379a0000000000000000000000000000000000000000000000000000000008152600401610751906118c8565b60405180910390fd5b60018160060160006101000a81548160ff02191690831515021790555060008160000160009054906101000a900473ffffffffffffffffffffffffffffffffffffffff1673ffffffffffffffffffffffffffffffffffffffff1682600101546040516107c590611919565b60006040518083038185875af1925050503d8060008114610802576040519150601f19603f3d011682016040523d82523d6000602084013e610807565b606091505b505090508061084b576040517f08c379a00000000000000000000000000000000000000000000000000000000081526004016108429061197a565b60405180910390fd5b7f3b7c90df35b419337cff0919fe91849006607bb66c4373623f06f9d48c1ebb98838360000160009054906101000a900473ffffffffffffffffffffffffffffffffffffffff1684600101546040516108a69392919061199a565b60405180910390a150506108b8611155565b50565b600047905090565b60025481565b60045481565b600581815481106108df57600080fd5b906000526020600020016000915054906101000a900473ffffffffffffffffffffffffffffffffffffffff1681565b610916611088565b610920600061115e565b565b600660003373ffffffffffffffffffffffffffffffffffffffff1673ffffffffffffffffffffffffffffffffffffffff16815260200190815260200160002060009054906101000a900460ff166109ae576040517f08c379a00000000000000000000000000000000000000000000000000000000081526004016109a590611a1d565b60405180910390fd5b478411156109f1576040517f08c379a00000000000000000000000000000000000000000000000000000000081526004016109e890611a89565b60405180910390fd5b600060046000815480929190610a0690611aa9565b9190505590506000600360008381526020019081526020016000209050868160000160006101000a81548173ffffffffffffffffffffffffffffffffffffffff021916908373ffffffffffffffffffffffffffffffffffffffff1602179055508581600101819055508484826002019182610a82929190611d37565b508242610a8f9190611e07565b81600301819055507fd38d9a9a102af286aea1cbcadb8aab8446a90859626389db3710ed4fea4c2c398288888460030154604051610ad09493929190611e3b565b60405180910390a150505050505050565b60008060009054906101000a900473ffffffffffffffffffffffffffffffffffffffff16905090565b60066020528060005260406000206000915054906101000a900460ff1681565b60036020528060005260406000206000915090508060000160009054906101000a900473ffffffffffffffffffffffffffffffffffffffff1690806001015490806002018054610b7990611b5a565b80601f0160208091040260200160405190810160405280929190818152602001828054610ba590611b5a565b8015610bf25780601f10610bc757610100808354040283529160200191610bf2565b820191906000526020600020905b815481529060010190602001808311610bd557829003601f168201915b5050505050908060030154908060040154908060050154908060060160009054906101000a900460ff16905087565b6000600360008481526020019081526020016000209050600660003373ffffffffffffffffffffffffffffffffffffffff1673ffffffffffffffffffffffffffffffffffffffff16815260200190815260200160002060009054906101000a900460ff16610cc4576040517f08c379a0000000000000000000000000000000000000000000000000000000008152600401610cbb90611ecc565b60405180910390fd5b8060030154421115610d0b576040517f08c379a0000000000000000000000000000000000000000000000000000000008152600401610d0290611f38565b60405180910390fd5b8060070160003373ffffffffffffffffffffffffffffffffffffffff1673ffffffffffffffffffffffffffffffffffffffff16815260200190815260200160002060009054906101000a900460ff1615610d9a576040517f08c379a0000000000000000000000000000000000000000000000000000000008152600401610d9190611fa4565b60405180910390fd5b60018160070160003373ffffffffffffffffffffffffffffffffffffffff1673ffffffffffffffffffffffffffffffffffffffff16815260200190815260200160002060006101000a81548160ff0219169083151502179055508115610e1b576001816004016000828254610e0f9190611e07565b92505081905550610e38565b6001816005016000828254610e309190611e07565b925050819055505b7ff2913dbe661ee2acc4a046d8fbcdc792373bda34c41c6086484b5345e5785e5f833384604051610e6b93929190611fc4565b60405180910390a1505050565b610e80611088565b600660008273ffffffffffffffffffffffffffffffffffffffff1673ffffffffffffffffffffffffffffffffffffffff16815260200190815260200160002060009054906101000a900460ff1615610f0d576040517f08c379a0000000000000000000000000000000000000000000000000000000008152600401610f0490612047565b60405180910390fd5b6001600660008373ffffffffffffffffffffffffffffffffffffffff1673ffffffffffffffffffffffffffffffffffffffff16815260200190815260200160002060006101000a81548160ff0219169083151502179055506005819080600181540180825580915050600190039060005260206000200160009091909190916101000a81548173ffffffffffffffffffffffffffffffffffffffff021916908373ffffffffffffffffffffffffffffffffffffffff1602179055507fb251eb052afc73ffd02ffe85ad79990a8b3fed60d76dbc2fa2fdd7123dffd91481604051610ff7919061135b565b60405180910390a150565b61100a611088565b600073ffffffffffffffffffffffffffffffffffffffff168173ffffffffffffffffffffffffffffffffffffffff160361107c5760006040517f1e4fbdf7000000000000000000000000000000000000000000000000000000008152600401611073919061135b565b60405180910390fd5b6110858161115e565b50565b611090611222565b73ffffffffffffffffffffffffffffffffffffffff166110ae610ae1565b73ffffffffffffffffffffffffffffffffffffffff161461110d576110d1611222565b6040517f118cdaa7000000000000000000000000000000000000000000000000000000008152600401611104919061135b565b60405180910390fd5b565b60026001540361114b576040517f3ee5aeb500000000000000000000000000000000000000000000000000000000815260040160405180910390fd5b6002600181905550565b60018081905550565b60008060009054906101000a900473ffffffffffffffffffffffffffffffffffffffff169050816000806101000a81548173ffffffffffffffffffffffffffffffffffffffff021916908373ffffffffffffffffffffffffffffffffffffffff1602179055508173ffffffffffffffffffffffffffffffffffffffff168173ffffffffffffffffffffffffffffffffffffffff167f8be0079c531659141344cd1fd0a4f28419497f9722a3daafe3b4186f6b6457e060405160405180910390a35050565b600033905090565b600080fd5b600080fd5b600073ffffffffffffffffffffffffffffffffffffffff82169050919050565b600061125f82611234565b9050919050565b61126f81611254565b811461127a57600080fd5b50565b60008135905061128c81611266565b92915050565b6000602082840312156112a8576112a761122a565b5b60006112b68482850161127d565b91505092915050565b6000819050919050565b6112d2816112bf565b81146112dd57600080fd5b50565b6000813590506112ef816112c9565b92915050565b60006020828403121561130b5761130a61122a565b5b6000611319848285016112e0565b91505092915050565b61132b816112bf565b82525050565b60006020820190506113466000830184611322565b92915050565b61135581611254565b82525050565b6000602082019050611370600083018461134c565b92915050565b600080fd5b600080fd5b600080fd5b60008083601f84011261139b5761139a611376565b5b8235905067ffffffffffffffff8111156113b8576113b761137b565b5b6020830191508360018202830111156113d4576113d3611380565b5b9250929050565b6000806000806000608086880312156113f7576113f661122a565b5b60006114058882890161127d565b9550506020611416888289016112e0565b945050604086013567ffffffffffffffff8111156114375761143661122f565b5b61144388828901611385565b93509350506060611456888289016112e0565b9150509295509295909350565b60008115159050919050565b61147881611463565b82525050565b6000602082019050611493600083018461146f565b92915050565b600081519050919050565b600082825260208201905092915050565b60005b838110156114d35780820151818401526020810190506114b8565b60008484015250505050565b6000601f19601f8301169050919050565b60006114fb82611499565b61150581856114a4565b93506115158185602086016114b5565b61151e816114df565b840191505092915050565b600060e08201905061153e600083018a61134c565b61154b6020830189611322565b818103604083015261155d81886114f0565b905061156c6060830187611322565b6115796080830186611322565b61158660a0830185611322565b61159360c083018461146f565b98975050505050505050565b6115a881611463565b81146115b357600080fd5b50565b6000813590506115c58161159f565b92915050565b600080604083850312156115e2576115e161122a565b5b60006115f0858286016112e0565b9250506020611601858286016115b6565b9150509250929050565b7f506173206d656d62726500000000000000000000000000000000000000000000600082015250565b6000611641600a836114a4565b915061164c8261160b565b602082019050919050565b6000602082019050818103600083015261167081611634565b9050919050565b7f4e487b7100000000000000000000000000000000000000000000000000000000600052603260045260246000fd5b7f4e487b7100000000000000000000000000000000000000000000000000000000600052601160045260246000fd5b60006116e0826112bf565b91506116eb836112bf565b9250828203905081811115611703576117026116a6565b5b92915050565b7f4e487b7100000000000000000000000000000000000000000000000000000000600052603160045260246000fd5b7f566f746520656e636f726520656e20636f757273000000000000000000000000600082015250565b600061176e6014836114a4565b915061177982611738565b602082019050919050565b6000602082019050818103600083015261179d81611761565b9050919050565b7f44656a6120657865637574656500000000000000000000000000000000000000600082015250565b60006117da600d836114a4565b91506117e5826117a4565b602082019050919050565b60006020820190508181036000830152611809816117cd565b9050919050565b7f51756f72756d206e6f6e2061747465696e740000000000000000000000000000600082015250565b60006118466012836114a4565b915061185182611810565b602082019050919050565b6000602082019050818103600083015261187581611839565b9050919050565b7f4d616a6f72697465206e6f6e2061747465696e74650000000000000000000000600082015250565b60006118b26015836114a4565b91506118bd8261187c565b602082019050919050565b600060208201905081810360008301526118e1816118a5565b9050919050565b600081905092915050565b50565b60006119036000836118e8565b915061190e826118f3565b600082019050919050565b6000611924826118f6565b9150819050919050565b7f5472616e7366657274206563686f756500000000000000000000000000000000600082015250565b60006119646010836114a4565b915061196f8261192e565b602082019050919050565b6000602082019050818103600083015261199381611957565b9050919050565b60006060820190506119af6000830186611322565b6119bc602083018561134c565b6119c96040830184611322565b949350505050565b7f5365756c20756e206d656d627265207065757420637265657200000000000000600082015250565b6000611a076019836114a4565b9150611a12826119d1565b602082019050919050565b60006020820190508181036000830152611a36816119fa565b9050919050565b7f536f6c646520696e737566666973616e742064616e73206c6520636c75620000600082015250565b6000611a73601e836114a4565b9150611a7e82611a3d565b602082019050919050565b60006020820190508181036000830152611aa281611a66565b9050919050565b6000611ab4826112bf565b91507fffffffffffffffffffffffffffffffffffffffffffffffffffffffffffffffff8203611ae657611ae56116a6565b5b600182019050919050565b600082905092915050565b7f4e487b7100000000000000000000000000000000000000000000000000000000600052604160045260246000fd5b7f4e487b7100000000000000000000000000000000000000000000000000000000600052602260045260246000fd5b60006002820490506001821680611b7257607f821691505b602082108103611b8557611b84611b2b565b5b50919050565b60008190508160005260206000209050919050565b60006020601f8301049050919050565b600082821b905092915050565b600060088302611bed7fffffffffffffffffffffffffffffffffffffffffffffffffffffffffffffffff82611bb0565b611bf78683611bb0565b95508019841693508086168417925050509392505050565b6000819050919050565b6000611c34611c2f611c2a846112bf565b611c0f565b6112bf565b9050919050565b6000819050919050565b611c4e83611c19565b611c62611c5a82611c3b565b848454611bbd565b825550505050565b600090565b611c77611c6a565b611c82818484611c45565b505050565b5b81811015611ca657611c9b600082611c6f565b600181019050611c88565b5050565b601f821115611ceb57611cbc81611b8b565b611cc584611ba0565b81016020851015611cd4578190505b611ce8611ce085611ba0565b830182611c87565b50505b505050565b600082821c905092915050565b6000611d0e60001984600802611cf0565b1980831691505092915050565b6000611d278383611cfd565b9150826002028217905092915050565b611d418383611af1565b67ffffffffffffffff811115611d5a57611d59611afc565b5b611d648254611b5a565b611d6f828285611caa565b6000601f831160018114611d9e5760008415611d8c578287013590505b611d968582611d1b565b865550611dfe565b601f198416611dac86611b8b565b60005b82811015611dd457848901358255600182019150602085019450602081019050611daf565b86831015611df15784890135611ded601f891682611cfd565b8355505b6001600288020188555050505b50505050505050565b6000611e12826112bf565b9150611e1d836112bf565b9250828201905080821115611e3557611e346116a6565b5b92915050565b6000608082019050611e506000830187611322565b611e5d602083018661134c565b611e6a6040830185611322565b611e776060830184611322565b95945050505050565b7f5365756c20756e206d656d627265207065757420766f74657200000000000000600082015250565b6000611eb66019836114a4565b9150611ec182611e80565b602082019050919050565b60006020820190508181036000830152611ee581611ea9565b9050919050565b7f566f7465207465726d696e650000000000000000000000000000000000000000600082015250565b6000611f22600c836114a4565b9150611f2d82611eec565b602082019050919050565b60006020820190508181036000830152611f5181611f15565b9050919050565b7f44656a6120766f74650000000000000000000000000000000000000000000000600082015250565b6000611f8e6009836114a4565b9150611f9982611f58565b602082019050919050565b60006020820190508181036000830152611fbd81611f81565b9050919050565b6000606082019050611fd96000830186611322565b611fe6602083018561134c565b611ff3604083018461146f565b949350505050565b7f44656a61206d656d627265000000000000000000000000000000000000000000600082015250565b6000612031600b836114a4565b915061203c82611ffb565b602082019050919050565b6000602082019050818103600083015261206081612024565b905091905056fea264697066735822122089141c685f09eca8c2365854d8c2e2b6f815dfe75e54221ce9d66dff360dcafc64736f6c634300081c0033",
  "linkReferences": {},
  "deployedLinkReferences": {}
}