{
  "_format": "hh-sol-artifact-1",
  "contractName": "SafeClub",
  "sourceName": "contracts/SafeClub.sol",
  "abi": [
    {
      "inputs": [
        {
          "internalType": "uint256",
          "name": "_quorum",
          "type": "uint256"
        }
      ],
      "stateMutability": "nonpayable",
      "type": "constructor"
    },
    {
      "inputs": [
        {
          "internalType": "address",
          "name": "owner",
          "type": "address"
        }
      ],
      "name": "OwnableInvalidOwner",
      "type": "error"
    },
    {
      "inputs": [
        {
          "internalType": "address",
          "name": "account",
          "type": "address"
        }
      ],
      "name": "OwnableUnauthorizedAccount",
      "type": "error"
    },
    {
      "inputs": [],
      "name": "ReentrancyGuardReentrantCall",
      "type": "error"
    },
    {
      "anonymous": false,
      "inputs": [
        {
          "indexed": false,
          "internalType": "address",
          "name": "member",
          "type": "address"
        }
      ],
      "name": "MemberAdded",
      "type": "event"
    },
    {
      "anonymous": false,
      "inputs": [
        {
          "indexed": false,
          "internalType": "address",
          "name": "member",
          "type": "address"
        }
      ],
      "name": "MemberRemoved",
      "type": "event"
    },
    {
      "anonymous": false,
      "inputs": [
        {
          "indexed": true,
          "internalType": "address",
          "name": "previousOwner",
          "type": "address"
        },
        {
          "indexed": true,
          "internalType": "address",
          "name": "newOwner",
          "type": "address"
        }
      ],
      "name": "OwnershipTransferred",
      "type": "event"
    },
    {
      "anonymous": false,
      "inputs": [
        {
          "indexed": false,
          "internalType": "uint256",
          "name": "proposalId",
          "type": "uint256"
        },
        {
          "indexed": false,
          "internalType": "address",
          "name": "recipient",
          "type": "address"
        },
        {
          "indexed": false,
          "internalType": "uint256",
          "name": "amount",
          "type": "uint256"
        },
        {
          "indexed": false,
          "internalType": "uint256",
          "name": "deadline",
          "type": "uint256"
        }
      ],
      "name": "ProposalCreated",
      "type": "event"
    },
    {
      "anonymous": false,
      "inputs": [
        {
          "indexed": false,
          "internalType": "uint256",
          "name": "proposalId",
          "type": "uint256"
        },
        {
          "indexed": false,
          "internalType": "address",
          "name": "recipient",
          "type": "address"
        },
        {
          "indexed": false,
          "internalType": "uint256",
          "name": "amount",
          "type": "uint256"
        }
      ],
      "name": "ProposalExecuted",
      "type": "event"
    },
    {
      "anonymous": false,
      "inputs": [
        {
          "indexed": false,
          "internalType": "uint256",
          "name": "proposalId",
          "type": "uint256"
        },
        {
          "indexed": false,
          "internalType": "address",
          "name": "voter",
          "type": "address"
        },
        {
          "indexed": false,
          "internalType": "bool",
          "name": "support",
          "type": "bool"
        }
      ],
      "name": "Voted",
      "type": "event"
    },
    {
      "inputs": [
        {
          "internalType": "address",
          "name": "_member",
          "type": "address"
        }
      ],
      "name": "addMember",
      "outputs": [],
      "stateMutability": "nonpayable",
      "type": "function"
    },
    {
      "inputs": [
        {
          "internalType": "address",
          "name": "_recipient",
          "type": "address"
        },
        {
          "internalType": "uint256",
          "name": "_amount",
          "type": "uint256"
        },
        {
          "internalType": "string",
          "name": "_description",
          "type": "string"
        },
        {
          "internalType": "uint256",
          "name": "_durationSeconds",
          "type": "uint256"
        }
      ],
      "name": "createProposal",
      "outputs": [],
      "stateMutability": "nonpayable",
      "type": "function"
    },
    {
      "inputs": [
        {
          "internalType": "uint256",
          "name": "_proposalId",
          "type": "uint256"
        }
      ],
      "name": "executeProposal",
      "outputs": [],
      "stateMutability": "nonpayable",
      "type": "function"
    },
    {
      "inputs": [],
      "name": "getBalance",
      "outputs": [
        {
          "internalType": "uint256",
          "name": "",
          "type": "uint256"
        }
      ],
      "stateMutability": "view",
      "type": "function"
    },
    {
      "inputs": [
        {
          "internalType": "uint256",
          "name": "_proposalId",
          "type": "uint256"
        }
      ],
      "name": "getProposal",
      "outputs": [
        {
          "internalType": "address",
          "name": "recipient",
          "type": "address"
        },
        {
          "internalType": "uint256",
          "name": "amount",
          "type": "uint256"
        },
        {
          "internalType": "string",
          "name": "description",
          "type": "string"
        },
        {
          "internalType": "uint256",
          "name": "deadline",
          "type": "uint256"
        },
        {
          "internalType": "uint256",
          "name": "yesVotes",
          "type": "uint256"
        },
        {
          "internalType": "uint256",
          "name": "noVotes",
          "type": "uint256"
        },
        {
          "internalType": "bool",
          "name": "executed",
          "type": "bool"
        }
      ],
      "stateMutability": "view",
      "type": "function"
    },
    {
      "inputs": [
        {
          "internalType": "address",
          "name": "",
          "type": "address"
        }
      ],
      "name": "isMember",
      "outputs": [
        {
          "internalType": "bool",
          "name": "",
          "type": "bool"
        }
      ],
      "stateMutability": "view",
      "type": "function"
    },
    {
      "inputs": [
        {
          "internalType": "uint256",
          "name": "",
          "type": "uint256"
        }
      ],
      "name": "members",
      "outputs": [
        {
          "internalType": "address",
          "name": "",
          "type": "address"
        }
      ],
      "stateMutability": "view",
      "type": "function"
    },
    {
      "inputs": [],
      "name": "nextProposalId",
      "outputs": [
        {
          "internalType": "uint256",
          "name": "",
          "type": "uint256"
        }
      ],
      "stateMutability": "view",
      "type": "function"
    },
    {
      "inputs": [],
      "name": "owner",
      "outputs": [
        {
          "internalType": "address",
          "name": "",
          "type": "address"
        }
      ],
      "stateMutability": "view",
      "type": "function"
    },
    {
      "inputs": [],
      "name": "quorum",
      "outputs": [
        {
          "internalType": "uint256",
          "name": "",
          "type": "uint256"
        }
      ],
      "stateMutability": "view",
      "type": "function"
    },
    {
      "inputs": [
        {
          "internalType": "address",
          "name": "_member",
          "type": "address"
        }
      ],
      "name": "removeMember",
      "outputs": [],
      "stateMutability": "nonpayable",
      "type": "function"
    },
    {
      "inputs": [],
      "name": "renounceOwnership",
      "outputs": [],
      "stateMutability": "nonpayable",
      "type": "function"
    },
    {
      "inputs": [
        {
          "internalType": "address",
          "name": "newOwner",
          "type": "address"
        }
      ],
      "name": "transferOwnership",
      "outputs": [],
      "stateMutability": "nonpayable",
      "type": "function"
    },
    {
      "inputs": [
        {
          "internalType": "uint256",
          "name": "_proposalId",
          "type": "uint256"
        },
        {
          "internalType": "bool",
          "name": "_support",
          "type": "bool"
        }
      ],
      "name": "vote",
      "outputs": [],
      "stateMutability": "nonpayable",
      "type": "function"
    },
    {
      "stateMutability": "payable",
      "type": "receive"
    }
  ],
  "bytecode": "0x608060405234801561001057600080fd5b50604051612787380380612787833981810160405281019061003291906102ba565b33600073ffffffffffffffffffffffffffffffffffffffff168173ffffffffffffffffffffffffffffffffffffffff16036100a55760006040517f1e4fbdf700000000000000000000000000000000000000000000000000000000815260040161009c9190610328565b60405180910390fd5b6100b4816101bb60201b60201c565b5060018081905550806002819055506001600660003373ffffffffffffffffffffffffffffffffffffffff1673ffffffffffffffffffffffffffffffffffffffff16815260200190815260200160002060006101000a81548160ff0219169083151502179055506005339080600181540180825580915050600190039060005260206000200160009091909190916101000a81548173ffffffffffffffffffffffffffffffffffffffff021916908373ffffffffffffffffffffffffffffffffffffffff1602179055507fb251eb052afc73ffd02ffe85ad79990a8b3fed60d76dbc2fa2fdd7123dffd914336040516101ad9190610328565b60405180910390a150610343565b60008060009054906101000a900473ffffffffffffffffffffffffffffffffffffffff169050816000806101000a81548173ffffffffffffffffffffffffffffffffffffffff021916908373ffffffffffffffffffffffffffffffffffffffff1602179055508173ffffffffffffffffffffffffffffffffffffffff168173ffffffffffffffffffffffffffffffffffffffff167f8be0079c531659141344cd1fd0a4f28419497f9722a3daafe3b4186f6b6457e060405160405180910390a35050565b600080fd5b6000819050919050565b61029781610284565b81146102a257600080fd5b50565b6000815190506102b48161028e565b92915050565b6000602082840312156102d0576102cf61027f565b5b60006102de848285016102a5565b91505092915050565b600073ffffffffffffffffffffffffffffffffffffffff82169050919050565b6000610312826102e7565b9050919050565b61032281610307565b82525050565b600060208201905061033d6000830184610319565b92915050565b612435806103526000396000f3fe6080604052600436106100e15760003560e01c80637d10707b1161007f578063c7f758a811610059578063c7f758a8146102a5578063c9d27afe146102e8578063ca6d56dc14610311578063f2fde38b1461033a576100e8565b80637d10707b146102145780638da5cb5b1461023d578063a230c52414610268576100e8565b80631703a018116100bb5780631703a0181461016a5780632ab09d14146101955780635daf08ca146101c0578063715018a6146101fd576100e8565b80630b1ca49a146100ed5780630d61b5191461011657806312065fe01461013f576100e8565b366100e857005b600080fd5b3480156100f957600080fd5b50610114600480360381019061010f91906114e6565b610363565b005b34801561012257600080fd5b5061013d60048036038101906101389190611549565b610610565b005b34801561014b57600080fd5b50610154610946565b6040516101619190611585565b60405180910390f35b34801561017657600080fd5b5061017f61094e565b60405161018c9190611585565b60405180910390f35b3480156101a157600080fd5b506101aa610954565b6040516101b79190611585565b60405180910390f35b3480156101cc57600080fd5b506101e760048036038101906101e29190611549565b61095a565b6040516101f491906115af565b60405180910390f35b34801561020957600080fd5b50610212610999565b005b34801561022057600080fd5b5061023b6004803603810190610236919061162f565b6109ad565b005b34801561024957600080fd5b50610252610c1e565b60405161025f91906115af565b60405180910390f35b34801561027457600080fd5b5061028f600480360381019061028a91906114e6565b610c47565b60405161029c91906116d2565b60405180910390f35b3480156102b157600080fd5b506102cc60048036038101906102c79190611549565b610c67565b6040516102df979695949392919061177d565b60405180910390f35b3480156102f457600080fd5b5061030f600480360381019061030a919061181f565b610dc2565b005b34801561031d57600080fd5b50610338600480360381019061033391906114e6565b61105d565b005b34801561034657600080fd5b50610361600480360381019061035c91906114e6565b611256565b005b61036b6112dc565b600660008273ffffffffffffffffffffffffffffffffffffffff1673ffffffffffffffffffffffffffffffffffffffff16815260200190815260200160002060009054906101000a900460ff166103f7576040517f08c379a00000000000000000000000000000000000000000000000000000000081526004016103ee906118ab565b60405180910390fd5b6000600660008373ffffffffffffffffffffffffffffffffffffffff1673ffffffffffffffffffffffffffffffffffffffff16815260200190815260200160002060006101000a81548160ff02191690831515021790555060005b6005805490508110156105d5578173ffffffffffffffffffffffffffffffffffffffff166005828154811061048a576104896118cb565b5b9060005260206000200160009054906101000a900473ffffffffffffffffffffffffffffffffffffffff1673ffffffffffffffffffffffffffffffffffffffff16036105c857600560016005805490506104e49190611929565b815481106104f5576104f46118cb565b5b9060005260206000200160009054906101000a900473ffffffffffffffffffffffffffffffffffffffff1660058281548110610534576105336118cb565b5b9060005260206000200160006101000a81548173ffffffffffffffffffffffffffffffffffffffff021916908373ffffffffffffffffffffffffffffffffffffffff160217905550600580548061058e5761058d61195d565b5b6001900381819060005260206000200160006101000a81549073ffffffffffffffffffffffffffffffffffffffff021916905590556105d5565b8080600101915050610452565b507f6e76fb4c77256006d9c38ec7d82b45a8c8f3c27b1d6766fffc42dfb8de6844928160405161060591906115af565b60405180910390a150565b610618611363565b600454811061065c576040517f08c379a0000000000000000000000000000000000000000000000000000000008152600401610653906119d8565b60405180910390fd5b6000600360008381526020019081526020016000209050806003015442116106b9576040517f08c379a00000000000000000000000000000000000000000000000000000000081526004016106b090611a44565b60405180910390fd5b8060060160009054906101000a900460ff161561070b576040517f08c379a000000000000000000000000000000000000000000000000000000000815260040161070290611ab0565b60405180910390fd5b60025481600401541015610754576040517f08c379a000000000000000000000000000000000000000000000000000000000815260040161074b90611b1c565b60405180910390fd5b806005015481600401541161079e576040517f08c379a000000000000000000000000000000000000000000000000000000000815260040161079590611b88565b60405180910390fd5b80600101544710156107e5576040517f08c379a00000000000000000000000000000000000000000000000000000000081526004016107dc90611bf4565b60405180910390fd5b60018160060160006101000a81548160ff02191690831515021790555060008160000160009054906101000a900473ffffffffffffffffffffffffffffffffffffffff1673ffffffffffffffffffffffffffffffffffffffff16826001015460405161085090611c45565b60006040518083038185875af1925050503d806000811461088d576040519150601f19603f3d011682016040523d82523d6000602084013e610892565b606091505b50509050806108d6576040517f08c379a00000000000000000000000000000000000000000000000000000000081526004016108cd90611ca6565b60405180910390fd5b7f3b7c90df35b419337cff0919fe91849006607bb66c4373623f06f9d48c1ebb98838360000160009054906101000a900473ffffffffffffffffffffffffffffffffffffffff16846001015460405161093193929190611cc6565b60405180910390a150506109436113a9565b50565b600047905090565b60025481565b60045481565b6005818154811061096a57600080fd5b906000526020600020016000915054906101000a900473ffffffffffffffffffffffffffffffffffffffff1681565b6109a16112dc565b6109ab60006113b2565b565b600660003373ffffffffffffffffffffffffffffffffffffffff1673ffffffffffffffffffffffffffffffffffffffff16815260200190815260200160002060009054906101000a900460ff16610a39576040517f08c379a0000000000000000000000000000000000000000000000000000000008152600401610a3090611d49565b60405180910390fd5b600073ffffffffffffffffffffffffffffffffffffffff168573ffffffffffffffffffffffffffffffffffffffff1603610aa8576040517f08c379a0000000000000000000000000000000000000000000000000000000008152600401610a9f90611db5565b60405180910390fd5b60008411610aeb576040517f08c379a0000000000000000000000000000000000000000000000000000000008152600401610ae290611e21565b60405180910390fd5b47841115610b2e576040517f08c379a0000000000000000000000000000000000000000000000000000000008152600401610b2590611bf4565b60405180910390fd5b600060046000815480929190610b4390611e41565b9190505590506000600360008381526020019081526020016000209050868160000160006101000a81548173ffffffffffffffffffffffffffffffffffffffff021916908373ffffffffffffffffffffffffffffffffffffffff1602179055508581600101819055508484826002019182610bbf9291906120cf565b508242610bcc919061219f565b81600301819055507fd38d9a9a102af286aea1cbcadb8aab8446a90859626389db3710ed4fea4c2c398288888460030154604051610c0d94939291906121d3565b60405180910390a150505050505050565b60008060009054906101000a900473ffffffffffffffffffffffffffffffffffffffff16905090565b60066020528060005260406000206000915054906101000a900460ff1681565b60008060606000806000806004548810610cb6576040517f08c379a0000000000000000000000000000000000000000000000000000000008152600401610cad906119d8565b60405180910390fd5b6000600360008a815260200190815260200160002090508060000160009054906101000a900473ffffffffffffffffffffffffffffffffffffffff168160010154826002018360030154846004015485600501548660060160009054906101000a900460ff16848054610d2890611ef2565b80601f0160208091040260200160405190810160405280929190818152602001828054610d5490611ef2565b8015610da15780601f10610d7657610100808354040283529160200191610da1565b820191906000526020600020905b815481529060010190602001808311610d8457829003601f168201915b50505050509450975097509750975097509750975050919395979092949650565b600660003373ffffffffffffffffffffffffffffffffffffffff1673ffffffffffffffffffffffffffffffffffffffff16815260200190815260200160002060009054906101000a900460ff16610e4e576040517f08c379a0000000000000000000000000000000000000000000000000000000008152600401610e4590611d49565b60405180910390fd5b6004548210610e92576040517f08c379a0000000000000000000000000000000000000000000000000000000008152600401610e89906119d8565b60405180910390fd5b60006003600084815260200190815260200160002090508060030154421115610ef0576040517f08c379a0000000000000000000000000000000000000000000000000000000008152600401610ee790612264565b60405180910390fd5b8060070160003373ffffffffffffffffffffffffffffffffffffffff1673ffffffffffffffffffffffffffffffffffffffff16815260200190815260200160002060009054906101000a900460ff1615610f7f576040517f08c379a0000000000000000000000000000000000000000000000000000000008152600401610f76906122d0565b60405180910390fd5b60018160070160003373ffffffffffffffffffffffffffffffffffffffff1673ffffffffffffffffffffffffffffffffffffffff16815260200190815260200160002060006101000a81548160ff0219169083151502179055508115611000576001816004016000828254610ff4919061219f565b9250508190555061101d565b6001816005016000828254611015919061219f565b925050819055505b7ff2913dbe661ee2acc4a046d8fbcdc792373bda34c41c6086484b5345e5785e5f833384604051611050939291906122f0565b60405180910390a1505050565b6110656112dc565b600073ffffffffffffffffffffffffffffffffffffffff168173ffffffffffffffffffffffffffffffffffffffff16036110d4576040517f08c379a00000000000000000000000000000000000000000000000000000000081526004016110cb90612373565b60405180910390fd5b600660008273ffffffffffffffffffffffffffffffffffffffff1673ffffffffffffffffffffffffffffffffffffffff16815260200190815260200160002060009054906101000a900460ff1615611161576040517f08c379a0000000000000000000000000000000000000000000000000000000008152600401611158906123df565b60405180910390fd5b6001600660008373ffffffffffffffffffffffffffffffffffffffff1673ffffffffffffffffffffffffffffffffffffffff16815260200190815260200160002060006101000a81548160ff0219169083151502179055506005819080600181540180825580915050600190039060005260206000200160009091909190916101000a81548173ffffffffffffffffffffffffffffffffffffffff021916908373ffffffffffffffffffffffffffffffffffffffff1602179055507fb251eb052afc73ffd02ffe85ad79990a8b3fed60d76dbc2fa2fdd7123dffd9148160405161124b91906115af565b60405180910390a150565b61125e6112dc565b600073ffffffffffffffffffffffffffffffffffffffff168173ffffffffffffffffffffffffffffffffffffffff16036112d05760006040517f1e4fbdf70000000000000000000000000000000000000000000000000000000081526004016112c791906115af565b60405180910390fd5b6112d9816113b2565b50565b6112e4611476565b73ffffffffffffffffffffffffffffffffffffffff16611302610c1e565b73ffffffffffffffffffffffffffffffffffffffff161461136157611325611476565b6040517f118cdaa700000000000000000000000000000000000000000000000000000000815260040161135891906115af565b60405180910390fd5b565b60026001540361139f576040517f3ee5aeb500000000000000000000000000000000000000000000000000000000815260040160405180910390fd5b6002600181905550565b60018081905550565b60008060009054906101000a900473ffffffffffffffffffffffffffffffffffffffff169050816000806101000a81548173ffffffffffffffffffffffffffffffffffffffff021916908373ffffffffffffffffffffffffffffffffffffffff1602179055508173ffffffffffffffffffffffffffffffffffffffff168173ffffffffffffffffffffffffffffffffffffffff167f8be0079c531659141344cd1fd0a4f28419497f9722a3daafe3b4186f6b6457e060405160405180910390a35050565b600033905090565b600080fd5b600080fd5b600073ffffffffffffffffffffffffffffffffffffffff82169050919050565b60006114b382611488565b9050919050565b6114c3816114a8565b81146114ce57600080fd5b50565b6000813590506114e0816114ba565b92915050565b6000602082840312156114fc576114fb61147e565b5b600061150a848285016114d1565b91505092915050565b6000819050919050565b61152681611513565b811461153157600080fd5b50565b6000813590506115438161151d565b92915050565b60006020828403121561155f5761155e61147e565b5b600061156d84828501611534565b91505092915050565b61157f81611513565b82525050565b600060208201905061159a6000830184611576565b92915050565b6115a9816114a8565b82525050565b60006020820190506115c460008301846115a0565b92915050565b600080fd5b600080fd5b600080fd5b60008083601f8401126115ef576115ee6115ca565b5b8235905067ffffffffffffffff81111561160c5761160b6115cf565b5b602083019150836001820283011115611628576116276115d4565b5b9250929050565b60008060008060006080868803121561164b5761164a61147e565b5b6000611659888289016114d1565b955050602061166a88828901611534565b945050604086013567ffffffffffffffff81111561168b5761168a611483565b5b611697888289016115d9565b935093505060606116aa88828901611534565b9150509295509295909350565b60008115159050919050565b6116cc816116b7565b82525050565b60006020820190506116e760008301846116c3565b92915050565b600081519050919050565b600082825260208201905092915050565b60005b8381101561172757808201518184015260208101905061170c565b60008484015250505050565b6000601f19601f8301169050919050565b600061174f826116ed565b61175981856116f8565b9350611769818560208601611709565b61177281611733565b840191505092915050565b600060e082019050611792600083018a6115a0565b61179f6020830189611576565b81810360408301526117b18188611744565b90506117c06060830187611576565b6117cd6080830186611576565b6117da60a0830185611576565b6117e760c08301846116c3565b98975050505050505050565b6117fc816116b7565b811461180757600080fd5b50565b600081359050611819816117f3565b92915050565b600080604083850312156118365761183561147e565b5b600061184485828601611534565b92505060206118558582860161180a565b9150509250929050565b7f506173206d656d62726500000000000000000000000000000000000000000000600082015250565b6000611895600a836116f8565b91506118a08261185f565b602082019050919050565b600060208201905081810360008301526118c481611888565b9050919050565b7f4e487b7100000000000000000000000000000000000000000000000000000000600052603260045260246000fd5b7f4e487b7100000000000000000000000000000000000000000000000000000000600052601160045260246000fd5b600061193482611513565b915061193f83611513565b9250828203905081811115611957576119566118fa565b5b92915050565b7f4e487b7100000000000000000000000000000000000000000000000000000000600052603160045260246000fd5b7f50726f706f736974696f6e20696e6578697374616e7465000000000000000000600082015250565b60006119c26017836116f8565b91506119cd8261198c565b602082019050919050565b600060208201905081810360008301526119f1816119b5565b9050919050565b7f566f746520656e636f726520656e20636f757273000000000000000000000000600082015250565b6000611a2e6014836116f8565b9150611a39826119f8565b602082019050919050565b60006020820190508181036000830152611a5d81611a21565b9050919050565b7f44656a6120657865637574656500000000000000000000000000000000000000600082015250565b6000611a9a600d836116f8565b9150611aa582611a64565b602082019050919050565b60006020820190508181036000830152611ac981611a8d565b9050919050565b7f51756f72756d206e6f6e2061747465696e740000000000000000000000000000600082015250565b6000611b066012836116f8565b9150611b1182611ad0565b602082019050919050565b60006020820190508181036000830152611b3581611af9565b9050919050565b7f4d616a6f72697465206e6f6e2061747465696e74650000000000000000000000600082015250565b6000611b726015836116f8565b9150611b7d82611b3c565b602082019050919050565b60006020820190508181036000830152611ba181611b65565b9050919050565b7f536f6c646520696e737566666973616e74000000000000000000000000000000600082015250565b6000611bde6011836116f8565b9150611be982611ba8565b602082019050919050565b60006020820190508181036000830152611c0d81611bd1565b9050919050565b600081905092915050565b50565b6000611c2f600083611c14565b9150611c3a82611c1f565b600082019050919050565b6000611c5082611c22565b9150819050919050565b7f5472616e7366657274206563686f756500000000000000000000000000000000600082015250565b6000611c906010836116f8565b9150611c9b82611c5a565b602082019050919050565b60006020820190508181036000830152611cbf81611c83565b9050919050565b6000606082019050611cdb6000830186611576565b611ce860208301856115a0565b611cf56040830184611576565b949350505050565b7f5365756c20756e206d656d627265000000000000000000000000000000000000600082015250565b6000611d33600e836116f8565b9150611d3e82611cfd565b602082019050919050565b60006020820190508181036000830152611d6281611d26565b9050919050565b7f44657374696e61746169726520696e76616c6964650000000000000000000000600082015250565b6000611d9f6015836116f8565b9150611daa82611d69565b602082019050919050565b60006020820190508181036000830152611dce81611d92565b9050919050565b7f4d6f6e74616e7420696e76616c69646500000000000000000000000000000000600082015250565b6000611e0b6010836116f8565b9150611e1682611dd5565b602082019050919050565b60006020820190508181036000830152611e3a81611dfe565b9050919050565b6000611e4c82611513565b91507fffffffffffffffffffffffffffffffffffffffffffffffffffffffffffffffff8203611e7e57611e7d6118fa565b5b600182019050919050565b600082905092915050565b7f4e487b7100000000000000000000000000000000000000000000000000000000600052604160045260246000fd5b7f4e487b7100000000000000000000000000000000000000000000000000000000600052602260045260246000fd5b60006002820490506001821680611f0a57607f821691505b602082108103611f1d57611f1c611ec3565b5b50919050565b60008190508160005260206000209050919050565b60006020601f8301049050919050565b600082821b905092915050565b600060088302611f857fffffffffffffffffffffffffffffffffffffffffffffffffffffffffffffffff82611f48565b611f8f8683611f48565b95508019841693508086168417925050509392505050565b6000819050919050565b6000611fcc611fc7611fc284611513565b611fa7565b611513565b9050919050565b6000819050919050565b611fe683611fb1565b611ffa611ff282611fd3565b848454611f55565b825550505050565b600090565b61200f612002565b61201a818484611fdd565b505050565b5b8181101561203e57612033600082612007565b600181019050612020565b5050565b601f8211156120835761205481611f23565b61205d84611f38565b8101602085101561206c578190505b61208061207885611f38565b83018261201f565b50505b505050565b600082821c905092915050565b60006120a660001984600802612088565b1980831691505092915050565b60006120bf8383612095565b9150826002028217905092915050565b6120d98383611e89565b67ffffffffffffffff8111156120f2576120f1611e94565b5b6120fc8254611ef2565b612107828285612042565b6000601f8311600181146121365760008415612124578287013590505b61212e85826120b3565b865550612196565b601f19841661214486611f23565b60005b8281101561216c57848901358255600182019150602085019450602081019050612147565b868310156121895784890135612185601f891682612095565b8355505b6001600288020188555050505b50505050505050565b60006121aa82611513565b91506121b583611513565b92508282019050808211156121cd576121cc6118fa565b5b92915050565b60006080820190506121e86000830187611576565b6121f560208301866115a0565b6122026040830185611576565b61220f6060830184611576565b95945050505050565b7f566f7465207465726d696e650000000000000000000000000000000000000000600082015250565b600061224e600c836116f8565b915061225982612218565b602082019050919050565b6000602082019050818103600083015261227d81612241565b9050919050565b7f44656a6120766f74650000000000000000000000000000000000000000000000600082015250565b60006122ba6009836116f8565b91506122c582612284565b602082019050919050565b600060208201905081810360008301526122e9816122ad565b9050919050565b60006060820190506123056000830186611576565b61231260208301856115a0565b61231f60408301846116c3565b949350505050565b7f4164726573736520696e76616c69646500000000000000000000000000000000600082015250565b600061235d6010836116f8565b915061236882612327565b602082019050919050565b6000602082019050818103600083015261238c81612350565b9050919050565b7f44656a61206d656d627265000000000000000000000000000000000000000000600082015250565b60006123c9600b836116f8565b91506123d482612393565b602082019050919050565b600060208201905081810360008301526123f8816123bc565b905091905056fea26469706673582212202cd6d2f4a0ba8d48640f00028041e0a0eee0f63d43c804d9dfa4561b04582c9b64736f6c634300081c0033",
  "linkReferences": {},
  "deployedLinkReferences": {}
}